:020000040800F2
:100000005007002089010008BF14000853110008A0
:10001000BD140008AF020008FF1500080000000032
:10002000000000000000000000000000C3140008F1
:10003000F503000800000000C1140008C514000802
:10004000A3010008A3010008A3010008A301000800
:10005000A3010008A3010008A3010008A3010008F0
:10006000A3010008A3010008A3010008A3010008E0
:10007000A3010008A3010008A3010008A3010008D0
:10008000A3010008A3010008A3010008A3010008C0
:10009000A3010008A3010008A3010008A3010008B0
:1000A000A3010008A3010008A3010008A3010008A0
:1000B000A3010008A3010008A3010008A301000890
:1000C000A3010008A3010008A3010008A301000880
:1000D000A3010008A3010008A3010008A301000870
:1000E000A3010008A3010008A301000800F002F822
:1000F00000F03AF80AA090E8000C82448344AAF188
:100100000107DA4501D100F02FF8AFF2090EBAE885
:100110000F0013F0010F18BFFB1A43F0010318473B
:100120006836000088360000103A24BF78C878C1CD
:10013000FAD8520724BF30C830C144BF04680C60ED
:10014000704700000023002400250026103A28BF35
:1001500078C1FBD8520728BF30C148BF0B60704739
:100160001FB51FBD10B510BD00F06CF81146FFF7AC
:10017000F7FF01F0ADFB00F08AF803B4FFF7F2FFE0
:1001800003BC00F08DF8000009488047094800478B
:10019000FEE7FEE7FEE7FEE7FEE7FEE7FEE7FEE737
:1001A000FEE7FEE704480549054A064B7047000094
:1001B00027150008ED00000850010020500700201E
:1001C00050030020500300204FF0000200B51346FA
:1001D00094469646203922BFA0E80C50A0E80C5067
:1001E000B1F12001BFF4F7AF090728BFA0E80C5018
:1001F00048BF0CC05DF804EB890028BF40F8042B11
:1002000008BF704748BF20F8022B11F0804F18BF7D
:1002100000F8012B704770477047704710B500F029
:1002200009F8006810BD10B5044600F003F804603A
:1002300010BD000000487047F000002000487047E3
:10024000F00000207546FFF7F9FFAE46050069464D
:10025000534620F00700854618B020B5FFF7A2FFEF
:10026000BDE820404FF000064FF000074FF00008B7
:100270004FF0000B21F00701AC46ACE8C009ACE838
:10028000C009ACE8C009ACE8C0098D46704710B59C
:100290000446AFF300802046BDE81040FFF76DBF75
:1002A00001491820ABBEFEE7260002007047FEE7BA
:1002B0002DE9F04700254FF0010A4FF40079DFF8EF
:1002C0008480214C00F0A4F9606100F0A1F94F4650
:1002D000A06102E000F09CF9A0613946404600F0C0
:1002E0008DF920B9D4E90501801C8842F2D8282074
:1002F00001F0DEFBB94639464746404600F07EF93C
:100300000028C5F107010AFA01F019D03043C6B23E
:1003100000F07EF9C4F8140000F07AF9A0614946B3
:10032000384600F06BF920B1D4E90501801C884201
:10033000F2D86D1CEDB2082DC4D33046BDE8F0876D
:100340008643E5E7000C0140000000202DE9FF4155
:10035000002502204FF400744FF00108CDE902504F
:10036000224ECDE900482F466946304600F056F847
:1003700000222146304600F046F9142000F03CF8F7
:1003800001222146304600F03EF91E2001F090FB8C
:10039000CDE901786946304600F040F8282001F0A8
:1003A00087FB2146304600F029F940B9502001F082
:1003B0007FFB2146304600F021F900B1012500F015
:1003C00027F90B4FC7F8140000F022F9B861214655
:1003D000304600F013F920B1D7E90501801C8842AE
:1003E000F2D804B02846BDE8F0810000000C0140BE
:1003F000000000207047000070B5044600F008F9C6
:100400000546601C02D004480078044400F000F95E
:10041000401BA042FAD370BD1C0000202DE9F84F0C
:10042000DFF8B891002409F1040A0AF1040B23460D
:100430000F270BF1040EC9E00125A5402A40AA426E
:100440007DD1674ED1F804C0ACEB0608B44532D07C
:1004500014DCBCF1030F3AD009DCBCF1000F2AD048
:10046000BCF1010F1CD0BCF1020F31D11DE0BCF179
:10047000110F17D0BCF1120F2AD119E0B8F5881F5F
:1004800019D006DCB8F5803F15D0B8F5801F1FD114
:1004900011E0B8F5001F0ED0B8F5041F18D10AE01E
:1004A000CB6815E0CB681B1D12E0CB6808330FE06A
:1004B000CB680C330CE08B682BB1012B4FF0080399
:1004C00003D0456104E0042302E0056100E000235D
:1004D000FF2A01D8064601E000F104064FEA840530
:1004E00001D9A5F12005D6F8008007FA05FC28EA15
:1004F0000C0803FA05F548EA0508C6F800804D68BF
:10050000ED0062D5374DAE6946F00106AE61AD69CA
:1005100024F0030605F001050095334D06EB050CAC
:10052000DCF80850A607360F07FA06F825EA080592
:10053000DFF8B880404503D14FF0000817E044E0F1
:10054000DFF8AC80404502D14FF001080FE0DFF842
:10055000A480404502D14FF0020808E0DFF89880FF
:10056000404502D14FF0030801E04FF0040808FABB
:1005700006F848EA0508CCF808804D68D9F800600C
:10058000ED034D4601D5164300E096432E604D68BD
:10059000DAF80060AD03554601D5164300E09643F6
:1005A0002E604D68DBF80060ED025D4601D5164314
:1005B00000E096432E604D68DEF80060AD0275469F
:1005C00001D5164300E096432E60641C0D682A4650
:1005D000E5407FF431AFBDE8F88F00000004014032
:1005E000000011100010024000000140000801400E
:1005F000000C0140001001400014014080680840D8
:1006000000D0012070470AB1016170470904FBE77F
:1006100001488068704700001C00002070B504008D
:1006200025D094F83D00002520B984F83C502046A0
:1006300000F04EF9242084F83D002068016821F084
:10064000010101602068016841F4004101602068F7
:10065000016821F40041016000F088FA4D4A6168A8
:10066000914201D84C4900E04C49884201D2012016
:1006700070BD4B492368B0FBF1F15E6826F03F0680
:100680000E435E606368934206D94FF496735943F4
:100690004FF47A73B1FBF3F12368491C1E6A26F00C
:1006A0003F06314319626168914210D84900401EEB
:1006B000B0FBF1F2521CC2F30B02042A01D2042057
:1006C00022E0B0FBF1F0401CC0F30B001CE0A2687C
:1006D000F2B301EBC10303EB0116431EB3FBF6F3C8
:1006E0005B1C43F480431B0549D092B301EBC1026C
:1006F00002EB0111401EB0FBF1F0401CC0F30B00F7
:1007000040F4804040F400402168CA694CF6FF7311
:100710009A431043C861D4E9071001432068026876
:1007200022F0C00211430160D4E9030101432068B3
:10073000826848F2FF339A4311438160D4E905018E
:1007400008432168CA6822F0FF021043C86001E034
:100750000EE016E02068016841F0010101602564A7
:10076000202084F83D00256384F83E50002070BDB1
:1007700001EB4106431EB3FBF6F35B1CB3E701201C
:10078000C2E701EB4101401EB0FBF1F0401CC0F399
:100790000B00B7E7A086010080841E0000093D0021
:1007A00040420F002DE9F84F1F4690468A46044606
:1007B000DDF82890FFF72CFF054694F83D0020282F
:1007C0007FD11923012240492046009500F04EFDBB
:1007D000002876D194F83C00012872D0012084F8DA
:1007E0003C0020680168C90703D1016841F001019C
:1007F00001602068016821F400610160212084F813
:100800003D00102084F83E0000262664C4F82480B1
:100810006785608D20852D48E0622B464A4651460B
:10082000204600F0AFFC90B92068416980690090D3
:1008300036E02A464946204600F097FD50B1206C2C
:10084000042804D12068016841F40071016001208E
:10085000BDE8F88F606A216800780861606A401C12
:100860006062618D491E6185218D491E89B2218595
:1008700022685369DB435B070BD451B100781061E8
:10088000606A401C6062608D401E6085208D401E45
:1008900020852A464946204600F0C2FC0028CED1D9
:1008A000208D0028C5D154F83D0B016841F400713A
:1008B0000160202004F81E09E67766770020C7E76C
:1008C000FFE70220C4E70000020010000000FFFF65
:1008D00010B586B00021009101910291039100684A
:1008E0000F4988421AD10F4CA06940F00800A0615E
:1008F000A069694600F008000490C0200090122012
:100900000190032003900848FFF788FDE06940F458
:100910000010E061E06900F40010049006B010BD22
:100920000054004000100240000C01400248816861
:1009300002781144816070471C000020074810B500
:10094000016841F010010160032000F067F80F20FA
:1009500000F006F800F024F8002010BD002002404E
:1009600070B50D4D04464FF47A712878B1FBF0F064
:100970000A490968B1FBF0F000F0CEFA48B9102C32
:1009800007D200222146501E00F028F800206C609B
:1009900070BD012070BD00001C0000202800002058
:1009A0000C4808B5816941F001018161816901F05C
:1009B00001010091C16941F08051C161C06900F03D
:1009C000805000900448416821F0E06141F00071DE
:1009D000416008BD0010024000000140F0B40E4B21
:1009E0001B680C46C3F30223C3F10705042D00D98D
:1009F0000425191D072901D2002300E0DB1E012672
:100A000006FA05F1491E214099409E40761E164087
:100A10003143F0BC00F008BE0CED00E0064900F0E8
:100A2000070208684FF6FF03184040EA0220034A15
:100A300010430860704700000CED00E00000FA056C
:100A40002DE9F0470F46050061D0434E306800F0B5
:100A50000700B84209D2306820F007003843306000
:100A6000306800F00700B84251D128683B4C81073C
:100A700012D5400703D5606840F4E06060602878D4
:100A8000000703D5606840F4605060606068A96842
:100A900020F0F000084360602878C00728D068681C
:100AA000012810D02168022810D0890700292EDAE9
:100AB000616821F0030101436160FFF7A9FD8046F1
:100AC00041F288390DE021688903EFE78901EDE7FC
:100AD000FFF79EFDA0EB0801494502D90320BDE8C0
:100AE000F0876068696800F00C00B0EB810FEFD10F
:100AF000306800F00700B8420BD9306820F00700DA
:100B000038433060306800F00700B84201D001205F
:100B1000E5E72878400705D56068E96820F4E060DB
:100B2000084360602878000706D56068296920F4CA
:100B3000605040EAC100606000F028F86168084A2F
:100B4000C1F30311515CC8400649086006480068BB
:100B5000FFF706FF0020C2E700200240001002401D
:100B6000DE36000828000020200000200448054947
:100B700000684968044AC1F30221515CC8407047CB
:100B80002800002000100240EE36000812A185B0B7
:100B90000FC98DE80F0014A0144A00680490516832
:100BA000134801F00C03042B10D0082B0ED1C1F315
:100BB0008343C9031DF803000AD5516804AAC1F391
:100BC0004041515C0A4A5043B0FBF1F005B0704718
:100BD00008494843FAE7000002030405060708092C
:100BE0000A0B0C0D0E0F1010010200000010024045
:100BF00000127A0000093D002DE9F84F040070D082
:100C00002078C04DC00749D06868C0F38100012832
:100C100007D06868C0F38100022809D16868C00362
:100C200006D52868800339D560680028E7D035E00C
:100C30006068B0F5803F0BD010B1B0F5A02F11D097
:100C4000286820F480302860286820F4802002E0A2
:100C5000286840F480302860606890B1FFF7D8FCC5
:100C600006460AE0286840F480202860F0E700BFCC
:100C7000FFF7CEFC801B642873D828688003F7D563
:100C80000CE0FFF7C5FC064605E000BFFFF7C0FC1F
:100C9000801B6428F0D828688003F7D420789A4E07
:100CA00080074FF001094FF0000839D5686810F04F
:100CB0000C0F07D06868C0F38100022809D168686A
:100CC000C00306D42868800714D52069012808D1FC
:100CD00010E02069B0B1C6F80090FFF799FC074614
:100CE00005E00AE1FFF794FCC01B0228C4D828687D
:100CF0008007F7D52868616920F0F80040EAC10054
:100D000028600DE0C6F80080FFF782FC074604E08B
:100D1000FFF77EFCC01B022823D828688007F7D481
:100D2000207800072CD57948A169D9B1C0F8009086
:100D3000FFF76EFC074604E0FFF76AFCC01B0228C1
:100D40000FD8686A8007F7D571484FF4FA510068E8
:100D5000B0FBF1F0009000BF0098411E0091FAD264
:100D60000EE080E0C0F80080FFF752FC074604E088
:100D7000FFF74EFCC01B022875D8686A8007F7D4BD
:100D80002078400760D5E8690027C00008D4E869EA
:100D900040F08050E861E869012700F08050009041
:100DA0005C480168C90513D40168834641F4807129
:100DB0000160FFF72DFC824606E000BFFFF728FC2C
:100DC000A0EB0A0064284ED8DBF80000C005F5D57A
:100DD000E06801280AD008B1052813D0286A20F05D
:100DE00001002862286A20F0040002E0286A40F02E
:100DF00001002862E06841F2883B98B1FFF708FCE7
:100E000082460BE0286A40F004002862EEE700BF4B
:100E1000FFF7FEFBA0EB0A0159455AD8286A800764
:100E2000F6D50CE0FFF7F4FB824605E0FFF7F0FB98
:100E3000A0EB0A0159454CD8286A8007F6D41FB1A7
:100E4000E86920F08050E861E06988B36968C1F31F
:100E50008101022944D00228C6F8608004D0FFF73F
:100E6000D7FB044638E034E0FFF7D2FB074604E046
:100E7000FFF7CEFBC01B02282BD828688001F7D4CF
:100E8000206AB0F5803F05D16868A16820F4003081
:100E900008436860D4E908010843696821F47411C3
:100EA00008436860C6F86090FFF7B2FB044606E0AE
:100EB00025E000BFFFF7ACFB001B022809D828681B
:100EC0008001F7D51BE000BFFFF7A2FB001B022843
:100ED00002D90320BDE8F88F28688001F4D40EE021
:100EE0000128F7D06868226A00F48031914204D169
:100EF000616A00F47010884201D00120EAE7002006
:100F0000E8E7000000100240000042428004424234
:100F1000280000200070004010B5401EB0F1807F16
:100F200001D3012010BD4FF0E02460610F21601754
:100F300000F07AFB0020A06107202061002010BD96
:100F400070B590F83C20012A26D0012480F83C405E
:100F5000022280F83D2003685A689D6822F07006DE
:100F60000A6832435A600D4B02689A4208D0B2F1C7
:100F7000804F05D00A4B9A4202D00A4B9A4204D1C4
:100F8000496825F080031943916080F83D400021B5
:100F900080F83C10084670BD022070BD002C014056
:100FA000000400400008004010B5040003D094F88D
:100FB0003D0010B107E0012010BD002084F83C0086
:100FC000204600F01FF8022084F83D00211D206813
:100FD00000F0AAFA012084F8460084F83E0084F864
:100FE0003F0084F8400084F8410084F8420084F80F
:100FF000430084F8440084F8450084F83D00002054
:1010000010BD000008B500680649884208D10648AE
:10101000816941F400618161806900F400600090A1
:1010200008BD0000002C01400010024090F83D1067
:10103000012901D001207047022180F83D1000688D
:101040000B49884208D0B0F1804F05D00949884249
:1010500002D00949884204D1816801F007010629BC
:1010600003D0016841F001010160002070470000D9
:10107000002C0140000400400008004070B5044608
:1010800090F83C00012817D0012584F83C5002203C
:1010900084F83D002068826822F0770222F47F42C3
:1010A00082600868502830D00DDC20284DD005DC47
:1010B00098B310283BD148E0022070BD302844D0BE
:1010C000402834D139E0602828D0702806D0B0F507
:1010D000805F2CD0B0F5005F29D10AE0CB68D1E960
:1010E0000121206800F056FA2068816841F07701FC
:1010F00009E0CB68D1E90121206800F04BFA2068B3
:10110000816841F48041816011E0CA6849682068C3
:1011100000F052FA5021206807E016E0CA684968DA
:10112000206800F05AFA6021206800F03DFA84F847
:101130003D50002084F83C0070BDCA6849682068B2
:1011400000F03AFA40212068EFE722680146104695
:10115000EBE7FEE701684A69D24352050FD46FF40A
:1011600080624A61002140F8301F2022427381735F
:10117000026942F0040202610173012070470020FD
:1011800070470000F8B50446C06A1E460D46174673
:10119000082807D0012805D010F5803F02D0206B29
:1011A000122804D12068016841F48071016013465F
:1011B00000224FF001112046009600F057F840B190
:1011C00020680068C00502D54FF400702064032039
:1011D000F8BD2069B0F5804F0ED00620216800EAE6
:1011E000D51040F0F000086133463A460B492046DE
:1011F00000F070F878B902E005F0FE0000E0E8B217
:1012000021680861054933463A46891F204600F0A7
:1012100061F80028DCD00120F8BD000008000100C2
:1012200070B516460D4604460DE02046FFF792FFC6
:1012300008B1012070BD681C05D0FFF7E9F9801BDB
:10124000A84207D835B120684069C0434007ECD4B4
:10125000002070BD002044F8300F20216173A0737E
:10126000216941F0200121612073E2E72DE9F04777
:101270001E4690460D460446C1F30747DDF8209010
:1012800008E0701C06D0FFF7C3F9A0EB0900B042DC
:101290000FD876B12068012F18D0806925EA0000A8
:1012A0000004000C14D000214145EAD00020BDE824
:1012B000F087002044F8300F20216173A07321696A
:1012C00041F02001216120730120F0E74069E5E74A
:1012D0000121E9E72DE9F0479A4691460E4604467A
:1012E00000254FF02008C1F3074725E0206840693A
:1012F000C043400514D42068016841F400710160C6
:1013000021686FF480604861256384F83D8084F82B
:101310003E50206C40F00400206484F83C501FE0F4
:10132000B9F1FF3F08D0FFF773F9A0EB0A01494577
:101330000CD8B9F1000F09D02068012F13D08069B3
:1013400026EA00000004000C0BD0CFE744F8305F21
:1013500084F80D80A573206940F02000206125737A
:101360000120BDE8F0874069EAE770B516460D46F2
:1013700004460DE02046FFF7EDFE08B1012070BDE8
:10138000681C05D0FFF744F9801BA84207D835B187
:1013900020684069C0430006ECD4002070BD0020E6
:1013A00044F8300F20216173A073216941F02001BE
:1013B00021612073E2E700002DE9F04385B00024AD
:1013C00021480094019402940394816941F0200122
:1013D0008161816901F020010491816941F004017A
:1013E0008161816901F004010491816941F0080182
:1013F00081618069DFF8548000F0080004900022C9
:1014000092214046FFF7FFF8DFF844904FF4007751
:10141000002239464846FFF7F6F8922001250226B9
:10142000CDE90005CDE9024669464046FEF7F6FFE4
:1014300000970396CDE9015469464846FEF7EEFF52
:1014400005B0BDE8F0830000001002400008014034
:10145000000C014010B586B0002417480094019498
:101460000294039404941349059401604721C0E950
:1014700001144FF6FF71C0E9031444618461FFF762
:1014800093FD08B172B6FEE74FF4805000906946B4
:101490000948FFF7F3FD08B172B6FEE7049404A90A
:1014A00005480594FFF74CFD002801D072B6FEE711
:1014B00006B010BD002C014080000020FEE7FEE7D2
:1014C00070477047FFF732BA30B58FB028216846B1
:1014D000FEF77AFE14210AA8FEF776FE0121080421
:1014E000CDE900100024029402250491CDE90750B3
:1014F0004FF4E01009906846FFF77EFB08B172B622
:10150000FEE70F20CDE90A054FF48060CDE90C40DD
:1015100002210AA80E94FFF793FA002801D072B6B0
:10152000FEE70FB030BD7047F0B50268164B174CA0
:10153000174D4FF08047984205D0B84203D0A042E3
:1015400001D0A84203D122F070064A683243984283
:1015500005D0B84203D0A04201D0A84203D122F462
:101560004074CA6822434C6922F080022243026020
:101570008A68C2620A688262984201D1096901637D
:1015800001214161F0BD0000002C01400004004039
:101590000008004010B5846842EA032224F47F4426
:1015A0000A432243826010BD826822F070020A431F
:1015B00042F007018160704710B5036A046A24F0A5
:1015C00001040462846924F0F00444EA021423F064
:1015D0000A020A438461026210BD10B5036A23F057
:1015E000100303628369046A23F4704343EA0232FE
:1015F00024F0A00343EA01118261016210BDFEE7FD
:10160000490050EAC12018BF04204A0D18BF40F01D
:10161000010040F2FF72B2EB515F08BF40F00200E0
:10162000012808BF052070470907090E002804DBC0
:1016300000F1E02080F80014704700F00F0000F186
:10164000E02080F8141D70472DE9F0414F1E00EB9B
:10165000C7010446D1E9000115461E4637F00602CF
:101660000DD02A46334601F0FBF97F1E04EBC70379
:10167000D3E9002300F07AFF37F00602F1D1022F00
:1016800025D0042F13D0062F18BFBDE8F0812A46BD
:10169000334601F0E5F9D4E90A2300F067FF2A4652
:1016A000334601F0DDF9D4E9082300F05FFF2A4654
:1016B000334601F0D5F9D4E9062300F057FF2A4656
:1016C000334601F0CDF9D4E9042300F04FFF2A4658
:1016D000334601F0C5F9D4E9022300F047FF2A465A
:1016E000334601F0BDF9D4E90023BDE8F04100F034
:1016F0003DBF0000002213461046014900F0F2BF32
:101700000000F03F00F032BF0022134610461146A1
:1017100000F0E8BF40F2013200204FF0E04101F05C
:1017200098BF0000024A0020110701F092BF00009C
:1017300001FDFFFF2DE9F04116460D46074601F079
:10174000C3FD044601F0DCFD394601F0D1FE074639
:1017500000222946204600F019F80446002E13D036
:101760002E20285531460A2000F0AEF901F0C8FDC0
:10177000394601F0F1FD01F0A7FD29193246BDE817
:10178000F041491C00F002B8BDE8F08130B50D46CB
:1017900000240A2109E000BF90FBF1F301FB1303D1
:1017A00090FBF1F030332B55641C0028F4D130202D
:1017B000944202DA2855641CFAE72146284600F0D4
:1017C0006FFE00202855204630BD012805D040314D
:1017D000C8B240F0800000F031B88031C8B2FAE7FA
:1017E00010B5332000F02AF8322000F027F832201C
:1017F000FEF702FE282000F021F83220FEF7FCFD63
:10180000012000F01BF83220FEF7F6FD062000F064
:1018100015F83220FEF7F0FD0C2000F00FF8322012
:10182000FEF7EAFD022000F009F83220FEF7E4FDA1
:10183000BDE81040802000F001B800001CB500F0A9
:10184000F00141F00C028DF8042041F00801000184
:101850008DF8051040F00C018DF8061040F00800DE
:101860008DF8070064200090042301AA4E2102484D
:10187000FEF798FF1CBD00002C0000201CB500F0F6
:10188000F00141F00D028DF8042041F00901000142
:101890008DF8051040F00D018DF8061040F009009C
:1018A0008DF8070064200090042301AA4E2102480D
:1018B000FEF778FF1CBD00002C00002010B5044688
:1018C00002E0641CFFF7DAFF20780028F9D110BD90
:1018D000FFF734F8FFF7F8FDFFF76EFD6548644940
:1018E0004FF4804201606449416000218160C0E999
:1018F000031241618161C1610162FEF78FFE08B18F
:1019000072B6FEE7FFF7A6FD5A485430FFF78EFB8C
:101910005A4C5B4D4FF47A7A002280212846FEF71C
:1019200072FE002210212846FEF76DFE00220221E1
:101930002846FEF768FEFEF709FD002877D0FEF77F
:10194000B7FC2070FEF7B4FC6070FEF7B1FCA0702D
:10195000FEF7AEFCE070FEF7ABFC207121786778F3
:101960008846A67839448A19E1780A4482422ED101
:10197000084601F026F8DFF80CB100225B4600F0C3
:10198000B1FE00F0C1FD8146304601F0D1FC494670
:1019900001F076FB3C49A06001F0DEFC3B4901F020
:1019A000D1FB4FF0844101F06BFBE060384601F061
:1019B00008F800225B4600F095FE00F0A5FD064603
:1019C000404601F0B5FC314601F05AFB206129493F
:1019D00001229C31A068FFF7ADFE26490122B031FB
:1019E0002069FFF7A7FEFFF7FBFE29A0FFF766FFC0
:1019F00020489C30FFF762FF28A0FFF75FFF00211F
:101A00000220FFF7E2FE26A0FFF758FF1948B0308A
:101A1000FFF754FF25A0FFF751FFA0780F2807D24A
:101A2000012280212846FEF7EEFD00220AE01BE09D
:101A300019284FF000024FF08001284608D2FEF727
:101A4000E2FD012210212846FEF7DDFD002207E01D
:101A5000FEF7D9FD002210212846FEF7D4FD012211
:101A600002212846FEF7CFFD5046FEF7C5FC53E79E
:101A7000005400402C000020A0860100000000203F
:101A80000008014000002440000010410000A04078
:101A900054656D7065747572653A0000430000000E
:101AA00048756D69646974793A000000250000008A
:101AB000044900220B685A6209684A6A8242FCD3D0
:101AC00070470000800000202DE9F04D1D460C46B7
:101AD00098B0174621F0004123F00043002814BFBE
:101AE0004FF0010C4FF0000C0CEB440CFE4A0CEBD9
:101AF00002064FEA620C66452BD33E0018BF012652
:101B000006EB45061644F94A964222D3F84A53EAB0
:101B1000070C02D0944205D148B918B000201146F4
:101B2000BDE8F08D002808BF4FF0000C01D04FF049
:101B3000010C0CEB440212F5001F0AD8002F14BF51
:101B40004FF0010C4FF0000C0CEB450212F5001F9A
:101B500007D918B03A462B462146BDE8F04DFFF7AD
:101B6000D1BD0022DFF88CA3002CB8BF534526DA84
:101B7000DFF884C36345A8BF022220DADFF870C310
:101B80009C451CDCDFF874C30CEB235CBCF1140F28
:101B900008DDCCF1340627FA06FC0CFA06F6BE4244
:101BA0000DD108E05FB9CCF1140623FA06FC0CFA5B
:101BB00006F69E4203D10CF00102C2F1020251EA84
:101BC000000C19D1002D17DA002C18BF022A01D001
:101BD000012A07D00220FEF726FB18B0BDE8F04D21
:101BE000FFF788BD0220FEF71EFBFFF783FD18B04C
:101BF00081F00041BDE8F08DB7F1000C6CD1534588
:101C000025D104F1804212F5801201BF0028002086
:101C1000B74918B008BFBDE8F08DB548884207DC69
:101C2000002DA1BF6046294618B0BDE8F08D07E041
:101C3000281E05DA80F0004118B06046BDE8F08D3E
:101C4000AF497944D1E9000118B0BDE8F08DDFF863
:101C5000A0C2634525D1002D1FDA19B1514512D11B
:101C6000D8B909E0002840F0EC82A24A214618B019
:101C700062F31E01BDE8F08D0020214618B060F32C
:101C80001E01BDE8F08D08DA18B02346BDE8F04D1E
:101C900002460020614600F025BD18B02146BDE88F
:101CA000F08D514518DAB5F1804F0DD0A5F1005CEB
:101CB000BCF1FF5C10D1B4F1000C0DDB18B0614633
:101CC000BDE8F04D00F0F9BB234618B00246BDE870
:101CD000F04D194600F0C4BE060024F0004C3BD184
:101CE000D9B1514533D1002C06DD002DA1BF002014
:101CF000514618B0BDE8F08D002C01DD002D1BDB36
:101D0000002C13DA002D11DB012A4FF0000014BF64
:101D100078497C4918B0BDE8F08D022A18BF002C24
:101D20000AD0012A08D1002C06DA0AE0002CB8BF3C
:101D3000002D11DA012A04D0002018B00146BDE8B8
:101D4000F08D18B000204FF00041BDE8F08DA1F1FA
:101D50004050B0F17F601AD0012000EBE47050EAEF
:101D6000020421D0624C521E4FF0000B104304BFFE
:101D70004FF0000B644C654883427CDD644A654843
:101D800093421FDD884217DB002D25DB37E0002C56
:101D900000DA4AB1022A0CBF01204FF0FF3018B020
:101DA000BDE8F04D00F0F6BD0120FEF73CFA18B09A
:101DB000BDE8F04DFFF7A8BC4D4A8A4202DC002D79
:101DC0000ADC1CE0814202DA002D18DA04E0484BFC
:101DD000994220DD002D12DD0220FEF724FAFFF7E4
:101DE00099FC05460E46002253465846214600F00F
:101DF00037FE18B066F31E012846BDE8F08D0220BC
:101E0000FEF711FAFFF78EFC0A46214618B062F37E
:101E10001E01BDE8F08D00223046614601F046F813
:101E200080460E466FF0010201F013FC4FF0553270
:101E3000394B00F049FF4246334600F011FE0022C4
:101E4000364B00F041FF824642463346049110462D
:101E5000194600F005FE5246049B00F001FE8A463A
:101E600000904FF0C0422E4B4046314600F0F8FD46
:101E70002C4A2B4B00E027E0CDE9060151460098A3
:101E800000F0EEFD82460191274A284B404631463C
:101E900000F0E6FD5246019B01F008F882460B4631
:101EA00002460591DDE9060100F060FBDDE906234D
:101EB00000268846304600F0F9FF5246059B00F0A8
:101EC00003FF024600F07EB90020B1F5801F07DA5B
:101ED00035223046614601F0BCFB06466FF0340007
:101EE00000EB215024E00000FFFF1F00FFFF0F0068
:101EF0000000F03F0000F07F0000404301FCFFFFC6
:101F00003A1B00000000F0FF0000F0BF0000E041BD
:101F10000000F043FFFFEF3F5555D53F0000E03F85
:101F20004715F73FFE822B6544DF5DF80BAE543E4C
:101F3000A0F2FF300190C1F3130040F07F6141F047
:101F400040510291FE498842D8BF002004DDFD497E
:101F50008142C8BF012001DD0D9008E000200D90F6
:101F60000198401C01900298A0F5801002900299FF
:101F7000F54878440B910D9900EBC100D0E900239E
:101F80000F9330460A920B9900F090FFCDE90601BD
:101F9000DDE90A2130460F9B00F0E8FA02460B46C5
:101FA0000020EA4900F09EFB059102460B46009096
:101FB000DDE9060100F054FD1490E5488A464FF033
:101FC000000878440299006812904FF0005040EAEF
:101FD00061010D980F9B01EB804000F500210991F4
:101FE0000A9A129800F062FF32460B9B00F06CFEDA
:101FF0004246534600F034FD0646029140465146A3
:10200000099B129A00F02CFDDDE9062300F05CFE2E
:102010003246029B00F04AFF059B009A00F020FD2B
:102020000091149A049053461046194600F018FD8A
:1020300006460246C7480B46029106217844FFF740
:1020400003FBCDE90510029B32461046194600F00D
:1020500007FDDDE9053200F003FD05910646534614
:1020600040461946149A00F081FA009B049A00F049
:10207000F7FC3246059B00F079FACDE9051042469F
:1020800053461046194600F0EBFC0022B24B029179
:102090000A9000F06BFADDE9053200F067FA0E46AF
:1020A0004246AD4B404600F001FF029B0A9A00F009
:1020B000FDFEDDE9053200F007FE424602910A907E
:1020C00033461046514600F0CBFCCDE9060153469D
:1020D000149A02990A9800F0C3FC8A46029033468B
:1020E00042460099049800F0BBFC5346029A00F067
:1020F0003DFA82460B4602460591DDE9060100F0F5
:1021000035FADDE9062300208846064600F0CEFEBB
:102110005246059B00F0D8FD824609914FF060427F
:102120008E4B3046414600F09BFC049006918C4A51
:102130008A4B5046099900F093FC82460291894AE5
:10214000894B3046414600F08BFC5246029B00F022
:102150000DFA864B7B440D9A03EBC203D3E90023AF
:1021600000F004FA0E900791019800F013FC05911D
:10217000DDE9061382460E9A049800F0F7F97C4ACE
:102180007A440D9B02EBC303D3E900230093029230
:1021900000F0ECF95246059B00F0E8F9002688466D
:1021A00052463046059B00F081FE009B029A00F0EB
:1021B0007DFE069B049A00F079FE079B0E9A00F0C4
:1021C00083FD024600200B4602903846294600F067
:1021D00047FC824601912B4638461946029A00F088
:1021E00065FE3246434600F03BFC5246019B00F040
:1021F000BDF907468A46324643462946029800F012
:102200002FFC05460E463A46534600F0AFF9594AB0
:102210008846914221DBA8EB020353EA000210D169
:102220002A46334600F042FECDE90401524A534BA0
:102230003846514600F09AF9DDE9042300F00EFD1E
:1022400021D20220FDF7EFFFFFF764FA0A4621468C
:1022500018B062F31E01BDE8F08D494B28F0004232
:102260009A4210D3474A08EB020353EA00027FF474
:10227000C6AD2A46334600F019FE3A46534600F0F2
:10228000EDFC7FF6BCAD0022019228F000403E49F3
:102290003E4A01EB2051824223DA481C4FF4801160
:1022A00021FA00F040443A4AC0F30A517A44394BCB
:1022B000A1F2FF31CB4020EA0303C0F3130040F446
:1022C0008010C1F11401C84012680190B8F1000FEC
:1022D000BCBF404201902846314600F0E7FD05466C
:1022E0000E462A4633463846514600F03FF94FF035
:1022F00000084246284B4046059100F0B1FBCDE96D
:102300000601264A264B4046059900F0A9FB00919C
:1023100002902A4633464046059900F0C7FD3A46EA
:10232000534600F0D1FC1F4A1F4B00F099FB009B65
:10233000029A00F01BF90746884602460B4635E034
:102340008E9803007AB60B00821700000000F03F61
:10235000BA170000E81600000000084009C7EE3F69
:10236000FD033ADCF5015B14E02F3EBEC015000012
:102370008415000000009040FE822B654715973CB5
:1023800000CC904000346F3F01FCFFFF0000E03FB5
:10239000D0140000FFFF0F00432EE63F396CA80C5D
:1023A000615C20BEEF39FAFE422EE63FDDE9060110
:1023B00000F0DCF8DDE9062305460E4600F076FD68
:1023C0003A46434600F080FC0F462A4633460090CA
:1023D0001046194600F044FB824602462E488846C5
:1023E0000B4605217844FFF72FF95246434600F08B
:1023F00037FB2A46334600F067FC80468A463B4658
:1024000028463146009A00F02BFB3B46009A00F02C
:10241000ADF80691009000224FF0804340465146AF
:1024200000F044FD0F460C90424653462846314684
:1024300000F016FB3B460C9A00F054F9069B009AFC
:1024400000F034FD2A46334600F030FD0022134BE5
:1024500000F03AFC054601980E4601EB00510815C4
:10246000002810DC28463146019A01F0F2F8FFF707
:10247000C7F8042808BFFFF755F928463146019AE6
:1024800001F0E7F805460B4618B02A4658462146A3
:10249000BDE8F04D00F0E4BA701300000000F03F1A
:1024A00010B50022491E05E0835C445C845443540B
:1024B000491E521C8A42F7DB10BD2DE9F041064649
:1024C0000F4600F00DFC041E0D4618BF01202843E6
:1024D00020F00040C0F17F6000F1E040C00F0ED05E
:1024E000301C18BF0120384320F00040C0F17F604D
:1024F00000F1E040C00F04BF0120FDF794FE20462C
:102500002946BDE8F081000021F00042A2F16052AE
:10251000B2F5801F01F0004328BFD2F17F6C0BD9C8
:102520005FEA001C43EAC20242EB507018BF7047DA
:1025300028BF20F001007047B2F5801FBCBF1846CD
:1025400070474FEA410C1CF5001F02D2084600F00C
:10255000CABF70B500F02EFB00000089FFF7F6BF80
:102560004FF00040A0F580007047000010B591EAE0
:10257000030F48BF83F0004300F1A084841A71EB7D
:10258000030C05D2121943EB0C03001B61EB0C0189
:10259000DFF824E14FEA1154A4EB135C1EEA430F69
:1025A00018BF9EEA445F73D023EA0E03DCF1200ECD
:1025B00021EA045143F4801332D322FA0CFE10EBCB
:1025C0000E0023FA0CFE41EB0E01CCF1200E03FAB3
:1025D0000EFE10EB0E0051F10001B1F5801FCCF1A1
:1025E000200E32D201EB045112FA0EF2BDE8104077
:1025F00058BF7047401C38BF5FEA420218BF70479F
:10260000002814BF20F0010041F100014FEA41030E
:1026100013F5001F38BF7047A1F1C04100F018BB8F
:10262000012A43EB0302ACF1200CDCF11F0E32BF98
:102630004FF0000E23FA0CF310EB030041EB0451B2
:10264000B4EB115FD0D0A1EB045101F58011490822
:102650005FEA300001EB04510ED350F1000038BFA7
:1026600012FA0EFE08D1BDE81040C9E7401C38BF81
:102670005FEA4202CAD1C3E7BDE810404FEA410316
:1026800013F5001F38BF7047A1F1C04100F0E0BA58
:102690009EEA445F08D011EA5E0FBDE8104004BF17
:1026A00001F0004100207047BDE8104070B500F017
:1026B00081FA00BF64FBBE3E0000E0FF02494FF01C
:1026C000000000F094BF00BF0000F87F491058BF21
:1026D000C1F140415B1058BFC3F140438B42EFF35F
:1026E000008070472DE9C04130B4DFF8A0C23CEA59
:1026F000111418BF3CEA131400F0EC8081EA0305C2
:102700001CEA111444EAD57418BF1CEA131500F032
:10271000C780A4EB05044FF0004545EAC12145EA16
:10272000C32341EA505143EA525304F17F74994262
:1027300004F500344FEAC0204FEAC22208BF90429D
:1027400000F09C804FEA13650FF24016765D4FEA69
:10275000134506FB05F7C7F1807706FB07F74FEA3D
:10276000D737A7FB03687642C8F58038A7FB06CEAB
:1027700038BFA8F1010807FB08E64FF0000EA6FBE2
:10278000028CE6FB03CEDCF1000CCEF1004E38BF2C
:10279000AEF1010EA6FB0C584FF000074FF00005FC
:1027A000E6FB0E87A1FB08C6A0FB07CE16EB0E06C4
:1027B00045F10005E1FB076515F1E04E7EBFA4F58C
:1027C00080345FEA46066D4116F1800745F1000549
:1027D0004FEA17274FEA066647EA0567A6F1DE4685
:1027E000B6F1805F4FEA15251FD9384624F0010C59
:1027F00005EBC471BCF1FE6F01EB0C1102D8F0BC0B
:10280000BDE8008124425CBF01F5801E9EEAC47FC2
:1028100002D4F0BCBDE80081244238D4F0BCA1F160
:10282000C041BDE8004100F013BA4FEAD22242EAAB
:1028300043524FEAD323A7FB02864FEAD02040EA57
:10284000415007FB03661EEA0E0F4FEAD12105FB3C
:10285000026658BFA6EB0056B6EB00564FEA520E82
:102860004EEAC37E18EB0E0E56EB530EBDD518EB99
:1028700002085E417F1C55F10005B6E74FF4801554
:102880004FF000074FF000064FF00008ADE7F0BC36
:102890004FF0000001F1C04101F00041BDE80081AE
:1028A00011EA0C1F0CEA131500D00CE013EA0C1F00
:1028B00000F025804FF00000F0BC81EA030101F038
:1028C0000041BDE80081F0BCBDE8004181EA0301A0
:1028D00000F0BEB9F0BCBDE8004170B500F06AF987
:1028E000097EFC3E00F007B881EA03014FF00000CA
:1028F00001F00041704781EA030100F0A9B9F0BC82
:10290000BDE800414FF0000021497047FFFDFBF991
:10291000F7F5F4F2F0EEEDEBE9E8E6E4E3E1E0DE12
:10292000DDDBDAD8D7D5D4D3D1D0CFCDCCCBCAC884
:10293000C7C6C5C4C2C1C0BFBEBDBCBBBAB9B8B7AB
:10294000B6B5B4B3B2B1B0AFAEADACABAAA9A8A89E
:10295000A7A6A5A4A3A3A2A1A09F9F9E9D9C9C9B6C
:102960009A99999897979695959493939291919017
:102970008F8F8E8E8D8C8C8B8B8A898988888787A8
:102980008685858484838382828181800000FF071D
:102990000000F87F10F0004248BF4042B0FA80F3D8
:1029A00010FA03F10AD0C3F11D0303F580634FEA67
:1029B000415002EB035202EBD12170474FF000006F
:1029C0007047B0FA80F310FA03F10AD0C3F11D0387
:1029D00003F580634FEA41504FEA035202EBD121E5
:1029E00070474FF00000704751EA030C17D41CF5F4
:1029F000801F58BFBCF5801F00F10680994218BFA8
:102A0000704708BF9042704707D711F5801F58BF25
:102A100013F5801F19D499427047894270471CF5FD
:102A2000801F08D5BCF5801FF7D58B4218BF7047B3
:102A300008BF824270474FF4001C1CEB410F38BFA7
:102A40001CEB430F01D28B42704770B500F0B2F817
:102A5000922449004FF000514FF08053FFF736BEEB
:102A6000DFF848C170B51CEA111E1EBF1CEA131521
:102A70009EEA0C0F95EA0C0F00F06F8081EA0304C8
:102A800023EA4C134EEAD47E21EA4C1141F4801122
:102A900043F48013AE44A1FB024CA0FB0365AEF1EE
:102AA0007F7E361955EB0C05A1FB034C4CF100035E
:102AB000A0FB021C16EB0C06654153F10003094212
:102AC00018BF46F0010613F4007F0BD14FEA033123
:102AD0004FEA0530340341EA155140EA16506FF0D1
:102AE00003020AE04FEAC3214FEAC520F40241EA9B
:102AF000555140EA56506FF0020202EB2E4201EBB4
:102B0000025585EACE710AD05FEA440C18BF24F062
:102B1000004450F1000041F1000120EAD47040F27D
:102B2000FE7C624500D270BDA84214BF4FF08044C5
:102B30004FF04044002E08BF0024BEF1806FA8BFB4
:102B4000A1F1C041BDE8704080F282804FF00000EA
:102B500001F1C04101F0004170479EEA0C0F0CEA00
:102B6000131518BF95EA0C0F06D04FF0000081EA4C
:102B7000030E0EF0004170BD00F01CF88900013E0C
:102B800000F007B800F009B84FEA430C5FEA5C5C5C
:102B900008D081EA030100F05BB84FEA410C5FEA1C
:102BA0005C5CF6D14FF00000014970470000FF0760
:102BB0000000F87F0EF1020E2EF0030E5EF8046B9B
:102BC000364205D4012A43EB030515F5001F12D840
:102BD000012841EB010C1CF5001F0CD80ED14FEA67
:102BE000D17C15F5001F0CEB4C0C0CF1020C08BF4E
:102BF0004CEBD37C04E04FF0080C01E04FEAD37CAF
:102C00000CEB4C0526FA05F606F00706B6F1040CA7
:102C100006D20EEB860CBDE870404CF0010C60470C
:102C2000DFE80CF0090B02024FF000414FF000000A
:102C3000A1F5002170BD19461046012851EB010491
:102C400018BFD4F5001484BF002001F0004170BD0E
:102C50000808A0F500114FEA3101704753EA010C52
:102C600017D41CF5801F58BFBCF5801F00F10680EB
:102C70008B4218BF704708BF8242704707D713F5D1
:102C8000801F58BF11F5801F19D48B4270479B429B
:102C900070471CF5801F08D5BCF5801FF7D59942F9
:102CA00018BF704708BF904270474FF4001C1CEBE0
:102CB000430F38BF1CEB410F01D2994270470FB44C
:102CC0000CBC03BCFFF7C1BE91EA030F10B581F045
:102CD00000413FF553AC83F0004300F0EFB8000033
:102CE0002DE9F04101F5801CBCF5001FC0F2C38046
:102CF0004FEA115C21EA0C510CF1FD0C41F48011FA
:102D00005FEA5C0C0CF5C07C01D3400049413DA456
:102D1000890241EA905187028E0E0A0CA45D04FBE1
:102D200004F602FB06F6C6F14046A4FB0662F60D69
:102D300046EA422606FB06F4A4FB01235242C3F1F5
:102D4000404338BF5B1EA6FB02420024E6FB03247F
:102D5000D20B42EA4446A6FB0623A1FB02E2A3FBF8
:102D600007E4A4184FF0000252F10002E3FB014215
:102D70006442C2F1404E38BFAEF1010EA6FB0423FF
:102D80004FF00002E6FB0E32A2FB03464FF00004B8
:102D9000B61954F10004E2FB0264A1FB06E6A4FBB1
:102DA00007E816EB08064FF0000858F10008E4FBAE
:102DB00001687642C8F1405838BFA8F10108A2FB6B
:102DC00006E4A3FB08E52D194FF0000454F10004BC
:102DD000E2FB0854A1FB05E6A7FB04E818EB060894
:102DE0004FF0000656F10006E1FB048618F12005BD
:102DF00056F10006A809A8F11B08B10908F03F0820
:102E0000B8F10A0F40EA86601CD901EB0C51BDE80D
:102E1000F08100BFFCF5EEE8E2DDD8D3CFCBC7C32D
:102E2000C0BDB9B6B4B1AEACA9A7A5A3A19F9D9BE7
:102E30009A9896959392908F8D8C8B8988878685AA
:102E400084838281A0FB006800FB01F208EB42084A
:102E5000B8EB872807D5341858EB0104D5D5401CAA
:102E600051F10001D1E7341A78EB0104CDD4401EB2
:102E700071F10001C9E75FEA4C0C5FEA9C5C0DD17F
:102E800005D34FF0000001F00041BDE8F081BDE83E
:102E9000F04170B5FFF78EFE6DDBFFBEBDE8F0417F
:102EA0004FF00000004970470000F87F10B591EA2C
:102EB000030F48BF83F000433FF560AB841A71EB0A
:102EC000030C07D212198CF0004C43EB0C03001BCF
:102ED00061EB0C01DFF8A4E14FEA1154A4EB135CA1
:102EE0001EEA430F18BF9EEA445F00F0B08023EA59
:102EF0006E03524221EA0451C3EB6E0338BF5B1EDE
:102F0000DCF1200E25D322FA0CFE10EB0E0043FA62
:102F10000CFE41EB0E01CCF1200E03FA0EFE10EB7D
:102F20000E0051F10001CCF1200E29D412FA0EF25C
:102F300001EB0451BDE8104058BF7047401C1CBF56
:102F4000B2F1004F704700280CBF491C20F001006F
:102F5000704712EB020E43EB030218BF4FF0010E55
:102F60004EEA4202ACF1200CDCF11E0E54D943FAB9
:102F70000CFE10EB0E0051F1FF31CCF11E0ED5D539
:102F80000EF1010E12FA0EFE404141EB010101EB80
:102F9000445C5FEA5C5C10D910EBDE7001EB04511D
:102FA00038BFBEF1004FBDE8104018BF7047002881
:102FB0000CBF491C20F00100704730D24FEAD42CDE
:102FC00011F5001124F400641BD0B1FA81F20B3A20
:102FD000A41AA41ED2F12003914030FA03F319433E
:102FE000904001EBCC71002C01EB0451BDE8104086
:102FF000A8BF704701F1C0414FF0000001F000414F
:103000007047B0FA80F310FA03F100D110BDE41A52
:10301000173C4805C90AE4E701EB045110BD49100B
:1030200001EB0451BDE810404FEA300002E04FF0E0
:10303000000170474A0008BF0042F8D0B2F5001FF7
:1030400028BF704701F000414FF0000070479EEA32
:10305000445F07D011EA5E0FBDE8104004BF0021B5
:1030600000207047BDE8104070B5FFF7A3FD00BF1A
:1030700040DFF63E83F00041104670470000E0FF5D
:1030800090EA010F48BF81F0004100F14282421AEC
:103090003CBF801A89184FEAD0524FF07F4C1CEA8F
:1030A000410FA2EBD15318BF9CEA026F00F03B80A6
:1030B0004FF0004C4CEA00204CEA012121FA03FCBD
:1030C00010EB0C0C1ED202F1FF325FEA1C2040EB29
:1030D000C25038BF70471CF07F0F4FEA400C18BF3A
:1030E000BCF17F4F38BF7047C3F12003994008BF40
:1030F00020F00100BCF17F4F38BF7047A0F1C04005
:1031000000F0F1B94FEA3C00000A40EBC25028BF82
:103110001CF0FF0F4FEA400CE6D018BFBCF17F4F08
:1031200038BF7047EAE79CEA026F05D010EA5C0FEF
:1031300008BF00F00040704710B500F08EF900BFE6
:1031400064FBBE3E4FF47F0C1CEAD0121EBF1CEA8B
:10315000D11392EA0C0F93EA0C0F00F0858090EAED
:10316000010F48BF42F4807240F4000C41F40000AB
:103170002CF07F4120F07F4000B58142A2EB03029A
:103180000FF2081CACEB504EC0F100009EF800E0BE
:103190004FEA4E0E00FB0EFC38BF49004FEA2C1CD4
:1031A00002F5FA020CFB0EF34FEACE1E4FEA112C89
:1031B0004FEAC1210EEB635E42EB22420EFB0CFC98
:1031C0004FEA1C5300FB03114FEA112C4FEA013167
:1031D0000EFB0CFC4FEADC4C00FB0C11C14228BF7B
:1031E00009184CEB03335DF804EB10EB410143EBA2
:1031F000C250B2F57C0F38BF704729D512F0F00FDE
:103200001CBF00F1C04000F0004070470081828385
:103210008485868788898B8C8D8E8F9192939596E5
:1032200097999A9C9D9FA0A2A3A5A7A8AAACAEB06F
:10323000B2B3B5B7B9BCBEC0C2C5C7C9CCCED1D474
:10324000D7D9DCDFE2E6E9ECF0F3F7FAFE000000A4
:103250004FEA400C0CF1807CBCF17E4F28BF7047D8
:10326000B0F1C04000F03FB990EA010F0CEAD11371
:1032700048BF42F48072624538BF634507D213F4F9
:103280007F0F16D080EA010000F00040704710B5B3
:1032900000F0E3F8097EFC3E00F005B880EA01008A
:1032A00000F00040704780EA010000F0004000F0AC
:1032B0001AB912F47F0F04BF0248704780EA010078
:1032C00000F011B90000C07F41000B0ED3F19E0247
:1032D00008D950F400034FEA032323FA02F048BF51
:1032E0004042704710B500F0B8F800BF4992248002
:1032F000002070476FF0004282EA20007047000013
:1033000010F0004148BF4042B0FA80F310FA03F2D7
:10331000C3F19D030BD051EAC35101EB12205306B8
:1033200038BF704700F1010008BF20F0010070476E
:10333000B0FA80F310FA03F2C3F19D030AD0D90565
:1033400001EB1220530638BF704700F1010008BF9F
:1033500020F00100704700004FF47F0C1CEAD012EF
:103360001EBF1CEAD11392EA0C0F93EA0C0F00F077
:10337000478090EA010F48BF42F480724FF0004C42
:103380004CEA00204CEA012102EB0302A0FB0113EE
:10339000A2F50002002918BF43F001035B0028BF1B
:1033A0004FEA330342EB22425FEA132C4CEBC2504C
:1033B0002EBFBCEB436FB2F57C0F70474FEA036C36
:1033C000BCF1004F08BF20F00100B2F57C0F38BF00
:1033D00070470BD582F0FF0212F5803FC8BF7047DF
:1033E00000F1C040D8BF00F00040704700F5000C6D
:1033F0005FEA4C0C48BF7047B0F1C04000F073B8B2
:1034000090EA010F0CEAD11348BF42F48072624582
:1034100038BF634504D280EA010000F000407047E5
:1034200010B500F01AF800BF8900013E00F007B89F
:1034300000F009B85FEA410C5FEA1C6C08D080EA32
:10344000010000F050B85FEA400C5FEA1C6CF6D156
:103450004FF00040A0F5800070470EF1020E2EF0F4
:10346000030E5EF8044B244204D44FEA4102B2F149
:103470007F4F11D84FEA4003B3F17F4F0CD80ED1E4
:103480004FEAD07CB2F17F4F0CEB4C0C0CF1020CEC
:1034900008BF4CEBD17C04E04FF0080C01E04FEA90
:1034A000D17C0CEB4C0324FA03F404F00704B4F1D0
:1034B000040C06D20EEB840CBDE810404CF0010C5D
:1034C0006047DFE80CF0070802024FF00040A0F56B
:1034D000800010BD0846420018BFD2F1807288BF3C
:1034E00000F0004010BDFF2141EAD050C0057047F8
:1034F00080F0004090EA010F7FF5C9AD81F00041F6
:1035000000F007B890EA010F48BF81F000413FF595
:10351000BEAD421A04D882F00042A0EB0200114472
:103520004FEAD0524FF07F4C1CEA410FA2EBD1532F
:1035300018BF9CEA026F4AD04FF0004C4CEA0020C2
:103540004CEA012121FA03FCB0EB0C0C0FD412F071
:10355000FE0F36D05FEA4C001DD5001240EBC25082
:1035600038BF70471CF03F0F18BF70470BE0A2F147
:1035700001025FEA1C2040EBC25038BF70471CF0CC
:103580007F0F18BF7047C3F12003994014BF401E3E
:1035900020F00100704780084FEA122308BF7047EF
:1035A000B0FA80FCA2EB0C02CCF1280C60FA0CF013
:1035B00093EA122F04BF00EBC25070474FEAC3706A
:1035C0007047130A5FEADC1008BF7047F6E79CEA11
:1035D000026F04D010EA5C0F08BF0020704710B5DE
:1035E000FFF73BFF40DFF63E81F0004070470CF0F4
:1035F0000F03092B08BF082000F059800A2B0BD0BD
:10360000082B18BF704708BF1CF0400F0AD04FF0BE
:1036100000004FF0000170471CF0400F18BF4FF042
:10362000004070471CF0100F08D020F0704300F0ED
:103630007F4242EAD3014FEA4370704700F0604096
:1036400021F07F4242EA000201F07F4040EA7270BE
:1036500070474FF0FF0C4CF4E06C1CEA11531CBF98
:103660009CEA030C9445C2BFDA4201EB0251704759
:10367000002B0DD0BCF1000F0FD0002A01F000414B
:10368000A4BF41F0E04141F07F614FF0000070477E
:1036900001F000414FF00000704750EA01334FF055
:1036A0009B0C18BF4CF0806C7FF408A870471CF48A
:1036B000801F11D01CF4E02F03D06FEACC314900F9
:1036C00070474FF04050EFF3008222F0704242EA20
:1036D000000282F3008870474FF00000704700003E
:1036E00000000000000001020304060708090000B2
:1036F0000000010203040000000000000000F03F91
:10370000000000000000F83F000000000000000082
:103710000000004003B8E23F00000000000000008D
:1037200006D0CF43EBFD4C3E033333333333E33F1B
:10373000FFAB6FDBB66DDB3F4D268F515555D53F47
:1037400001411DA96074D13F65DBC9934A86CD3F15
:10375000EF4E454A287ECA3F3E5555555555C53F03
:1037600093BDBE166CC166BF2CDE25AF6A56113FF5
:10377000F16BD2C541BDBBBED0A4BE726937663EF7
:103780000000000000000000A83700080000002032
:103790002C00000028010008D43700082C0000206D
:1037A00024070000440100080000000000000000A1
:1037B0000000000000000000000000000000000009
:1037C00000000000010000001000000000000000E8
:0437D0000024F400DD
:04000005080000ED02
:00000001FF
